{
  "address": "0xD54343A590e8fAAa1cb9ea9F1fddef4ABd365310",
  "abi": [
    {
      "inputs": [
        {
          "internalType": "uint256",
          "name": "minDelay",
          "type": "uint256"
        },
        {
          "internalType": "address[]",
          "name": "proposers",
          "type": "address[]"
        },
        {
          "internalType": "address[]",
          "name": "executors",
          "type": "address[]"
        },
        {
          "internalType": "address",
          "name": "admin",
          "type": "address"
        }
      ],
      "stateMutability": "nonpayable",
      "type": "constructor"
    },
    {
      "inputs": [],
      "name": "AccessControlBadConfirmation",
      "type": "error"
    },
    {
      "inputs": [
        {
          "internalType": "address",
          "name": "account",
          "type": "address"
        },
        {
          "internalType": "bytes32",
          "name": "neededRole",
          "type": "bytes32"
        }
      ],
      "name": "AccessControlUnauthorizedAccount",
      "type": "error"
    },
    {
      "inputs": [],
      "name": "FailedInnerCall",
      "type": "error"
    },
    {
      "inputs": [
        {
          "internalType": "uint256",
          "name": "delay",
          "type": "uint256"
        },
        {
          "internalType": "uint256",
          "name": "minDelay",
          "type": "uint256"
        }
      ],
      "name": "TimelockInsufficientDelay",
      "type": "error"
    },
    {
      "inputs": [
        {
          "internalType": "uint256",
          "name": "targets",
          "type": "uint256"
        },
        {
          "internalType": "uint256",
          "name": "payloads",
          "type": "uint256"
        },
        {
          "internalType": "uint256",
          "name": "values",
          "type": "uint256"
        }
      ],
      "name": "TimelockInvalidOperationLength",
      "type": "error"
    },
    {
      "inputs": [
        {
          "internalType": "address",
          "name": "caller",
          "type": "address"
        }
      ],
      "name": "TimelockUnauthorizedCaller",
      "type": "error"
    },
    {
      "inputs": [
        {
          "internalType": "bytes32",
          "name": "predecessorId",
          "type": "bytes32"
        }
      ],
      "name": "TimelockUnexecutedPredecessor",
      "type": "error"
    },
    {
      "inputs": [
        {
          "internalType": "bytes32",
          "name": "operationId",
          "type": "bytes32"
        },
        {
          "internalType": "bytes32",
          "name": "expectedStates",
          "type": "bytes32"
        }
      ],
      "name": "TimelockUnexpectedOperationState",
      "type": "error"
    },
    {
      "anonymous": false,
      "inputs": [
        {
          "indexed": true,
          "internalType": "bytes32",
          "name": "id",
          "type": "bytes32"
        },
        {
          "indexed": true,
          "internalType": "uint256",
          "name": "index",
          "type": "uint256"
        },
        {
          "indexed": false,
          "internalType": "address",
          "name": "target",
          "type": "address"
        },
        {
          "indexed": false,
          "internalType": "uint256",
          "name": "value",
          "type": "uint256"
        },
        {
          "indexed": false,
          "internalType": "bytes",
          "name": "data",
          "type": "bytes"
        }
      ],
      "name": "CallExecuted",
      "type": "event"
    },
    {
      "anonymous": false,
      "inputs": [
        {
          "indexed": true,
          "internalType": "bytes32",
          "name": "id",
          "type": "bytes32"
        },
        {
          "indexed": false,
          "internalType": "bytes32",
          "name": "salt",
          "type": "bytes32"
        }
      ],
      "name": "CallSalt",
      "type": "event"
    },
    {
      "anonymous": false,
      "inputs": [
        {
          "indexed": true,
          "internalType": "bytes32",
          "name": "id",
          "type": "bytes32"
        },
        {
          "indexed": true,
          "internalType": "uint256",
          "name": "index",
          "type": "uint256"
        },
        {
          "indexed": false,
          "internalType": "address",
          "name": "target",
          "type": "address"
        },
        {
          "indexed": false,
          "internalType": "uint256",
          "name": "value",
          "type": "uint256"
        },
        {
          "indexed": false,
          "internalType": "bytes",
          "name": "data",
          "type": "bytes"
        },
        {
          "indexed": false,
          "internalType": "bytes32",
          "name": "predecessor",
          "type": "bytes32"
        },
        {
          "indexed": false,
          "internalType": "uint256",
          "name": "delay",
          "type": "uint256"
        }
      ],
      "name": "CallScheduled",
      "type": "event"
    },
    {
      "anonymous": false,
      "inputs": [
        {
          "indexed": true,
          "internalType": "bytes32",
          "name": "id",
          "type": "bytes32"
        }
      ],
      "name": "Cancelled",
      "type": "event"
    },
    {
      "anonymous": false,
      "inputs": [
        {
          "indexed": false,
          "internalType": "uint256",
          "name": "oldDuration",
          "type": "uint256"
        },
        {
          "indexed": false,
          "internalType": "uint256",
          "name": "newDuration",
          "type": "uint256"
        }
      ],
      "name": "MinDelayChange",
      "type": "event"
    },
    {
      "anonymous": false,
      "inputs": [
        {
          "indexed": true,
          "internalType": "bytes32",
          "name": "role",
          "type": "bytes32"
        },
        {
          "indexed": true,
          "internalType": "bytes32",
          "name": "previousAdminRole",
          "type": "bytes32"
        },
        {
          "indexed": true,
          "internalType": "bytes32",
          "name": "newAdminRole",
          "type": "bytes32"
        }
      ],
      "name": "RoleAdminChanged",
      "type": "event"
    },
    {
      "anonymous": false,
      "inputs": [
        {
          "indexed": true,
          "internalType": "bytes32",
          "name": "role",
          "type": "bytes32"
        },
        {
          "indexed": true,
          "internalType": "address",
          "name": "account",
          "type": "address"
        },
        {
          "indexed": true,
          "internalType": "address",
          "name": "sender",
          "type": "address"
        }
      ],
      "name": "RoleGranted",
      "type": "event"
    },
    {
      "anonymous": false,
      "inputs": [
        {
          "indexed": true,
          "internalType": "bytes32",
          "name": "role",
          "type": "bytes32"
        },
        {
          "indexed": true,
          "internalType": "address",
          "name": "account",
          "type": "address"
        },
        {
          "indexed": true,
          "internalType": "address",
          "name": "sender",
          "type": "address"
        }
      ],
      "name": "RoleRevoked",
      "type": "event"
    },
    {
      "inputs": [],
      "name": "CANCELLER_ROLE",
      "outputs": [
        {
          "internalType": "bytes32",
          "name": "",
          "type": "bytes32"
        }
      ],
      "stateMutability": "view",
      "type": "function"
    },
    {
      "inputs": [],
      "name": "DEFAULT_ADMIN_ROLE",
      "outputs": [
        {
          "internalType": "bytes32",
          "name": "",
          "type": "bytes32"
        }
      ],
      "stateMutability": "view",
      "type": "function"
    },
    {
      "inputs": [],
      "name": "EXECUTOR_ROLE",
      "outputs": [
        {
          "internalType": "bytes32",
          "name": "",
          "type": "bytes32"
        }
      ],
      "stateMutability": "view",
      "type": "function"
    },
    {
      "inputs": [],
      "name": "PROPOSER_ROLE",
      "outputs": [
        {
          "internalType": "bytes32",
          "name": "",
          "type": "bytes32"
        }
      ],
      "stateMutability": "view",
      "type": "function"
    },
    {
      "inputs": [
        {
          "internalType": "bytes32",
          "name": "id",
          "type": "bytes32"
        }
      ],
      "name": "cancel",
      "outputs": [],
      "stateMutability": "nonpayable",
      "type": "function"
    },
    {
      "inputs": [
        {
          "internalType": "address",
          "name": "target",
          "type": "address"
        },
        {
          "internalType": "uint256",
          "name": "value",
          "type": "uint256"
        },
        {
          "internalType": "bytes",
          "name": "payload",
          "type": "bytes"
        },
        {
          "internalType": "bytes32",
          "name": "predecessor",
          "type": "bytes32"
        },
        {
          "internalType": "bytes32",
          "name": "salt",
          "type": "bytes32"
        }
      ],
      "name": "execute",
      "outputs": [],
      "stateMutability": "payable",
      "type": "function"
    },
    {
      "inputs": [
        {
          "internalType": "address[]",
          "name": "targets",
          "type": "address[]"
        },
        {
          "internalType": "uint256[]",
          "name": "values",
          "type": "uint256[]"
        },
        {
          "internalType": "bytes[]",
          "name": "payloads",
          "type": "bytes[]"
        },
        {
          "internalType": "bytes32",
          "name": "predecessor",
          "type": "bytes32"
        },
        {
          "internalType": "bytes32",
          "name": "salt",
          "type": "bytes32"
        }
      ],
      "name": "executeBatch",
      "outputs": [],
      "stateMutability": "payable",
      "type": "function"
    },
    {
      "inputs": [],
      "name": "getMinDelay",
      "outputs": [
        {
          "internalType": "uint256",
          "name": "",
          "type": "uint256"
        }
      ],
      "stateMutability": "view",
      "type": "function"
    },
    {
      "inputs": [
        {
          "internalType": "bytes32",
          "name": "id",
          "type": "bytes32"
        }
      ],
      "name": "getOperationState",
      "outputs": [
        {
          "internalType": "enum TimelockController.OperationState",
          "name": "",
          "type": "uint8"
        }
      ],
      "stateMutability": "view",
      "type": "function"
    },
    {
      "inputs": [
        {
          "internalType": "bytes32",
          "name": "role",
          "type": "bytes32"
        }
      ],
      "name": "getRoleAdmin",
      "outputs": [
        {
          "internalType": "bytes32",
          "name": "",
          "type": "bytes32"
        }
      ],
      "stateMutability": "view",
      "type": "function"
    },
    {
      "inputs": [
        {
          "internalType": "bytes32",
          "name": "id",
          "type": "bytes32"
        }
      ],
      "name": "getTimestamp",
      "outputs": [
        {
          "internalType": "uint256",
          "name": "",
          "type": "uint256"
        }
      ],
      "stateMutability": "view",
      "type": "function"
    },
    {
      "inputs": [
        {
          "internalType": "bytes32",
          "name": "role",
          "type": "bytes32"
        },
        {
          "internalType": "address",
          "name": "account",
          "type": "address"
        }
      ],
      "name": "grantRole",
      "outputs": [],
      "stateMutability": "nonpayable",
      "type": "function"
    },
    {
      "inputs": [
        {
          "internalType": "bytes32",
          "name": "role",
          "type": "bytes32"
        },
        {
          "internalType": "address",
          "name": "account",
          "type": "address"
        }
      ],
      "name": "hasRole",
      "outputs": [
        {
          "internalType": "bool",
          "name": "",
          "type": "bool"
        }
      ],
      "stateMutability": "view",
      "type": "function"
    },
    {
      "inputs": [
        {
          "internalType": "address",
          "name": "target",
          "type": "address"
        },
        {
          "internalType": "uint256",
          "name": "value",
          "type": "uint256"
        },
        {
          "internalType": "bytes",
          "name": "data",
          "type": "bytes"
        },
        {
          "internalType": "bytes32",
          "name": "predecessor",
          "type": "bytes32"
        },
        {
          "internalType": "bytes32",
          "name": "salt",
          "type": "bytes32"
        }
      ],
      "name": "hashOperation",
      "outputs": [
        {
          "internalType": "bytes32",
          "name": "",
          "type": "bytes32"
        }
      ],
      "stateMutability": "pure",
      "type": "function"
    },
    {
      "inputs": [
        {
          "internalType": "address[]",
          "name": "targets",
          "type": "address[]"
        },
        {
          "internalType": "uint256[]",
          "name": "values",
          "type": "uint256[]"
        },
        {
          "internalType": "bytes[]",
          "name": "payloads",
          "type": "bytes[]"
        },
        {
          "internalType": "bytes32",
          "name": "predecessor",
          "type": "bytes32"
        },
        {
          "internalType": "bytes32",
          "name": "salt",
          "type": "bytes32"
        }
      ],
      "name": "hashOperationBatch",
      "outputs": [
        {
          "internalType": "bytes32",
          "name": "",
          "type": "bytes32"
        }
      ],
      "stateMutability": "pure",
      "type": "function"
    },
    {
      "inputs": [
        {
          "internalType": "bytes32",
          "name": "id",
          "type": "bytes32"
        }
      ],
      "name": "isOperation",
      "outputs": [
        {
          "internalType": "bool",
          "name": "",
          "type": "bool"
        }
      ],
      "stateMutability": "view",
      "type": "function"
    },
    {
      "inputs": [
        {
          "internalType": "bytes32",
          "name": "id",
          "type": "bytes32"
        }
      ],
      "name": "isOperationDone",
      "outputs": [
        {
          "internalType": "bool",
          "name": "",
          "type": "bool"
        }
      ],
      "stateMutability": "view",
      "type": "function"
    },
    {
      "inputs": [
        {
          "internalType": "bytes32",
          "name": "id",
          "type": "bytes32"
        }
      ],
      "name": "isOperationPending",
      "outputs": [
        {
          "internalType": "bool",
          "name": "",
          "type": "bool"
        }
      ],
      "stateMutability": "view",
      "type": "function"
    },
    {
      "inputs": [
        {
          "internalType": "bytes32",
          "name": "id",
          "type": "bytes32"
        }
      ],
      "name": "isOperationReady",
      "outputs": [
        {
          "internalType": "bool",
          "name": "",
          "type": "bool"
        }
      ],
      "stateMutability": "view",
      "type": "function"
    },
    {
      "inputs": [
        {
          "internalType": "address",
          "name": "",
          "type": "address"
        },
        {
          "internalType": "address",
          "name": "",
          "type": "address"
        },
        {
          "internalType": "uint256[]",
          "name": "",
          "type": "uint256[]"
        },
        {
          "internalType": "uint256[]",
          "name": "",
          "type": "uint256[]"
        },
        {
          "internalType": "bytes",
          "name": "",
          "type": "bytes"
        }
      ],
      "name": "onERC1155BatchReceived",
      "outputs": [
        {
          "internalType": "bytes4",
          "name": "",
          "type": "bytes4"
        }
      ],
      "stateMutability": "nonpayable",
      "type": "function"
    },
    {
      "inputs": [
        {
          "internalType": "address",
          "name": "",
          "type": "address"
        },
        {
          "internalType": "address",
          "name": "",
          "type": "address"
        },
        {
          "internalType": "uint256",
          "name": "",
          "type": "uint256"
        },
        {
          "internalType": "uint256",
          "name": "",
          "type": "uint256"
        },
        {
          "internalType": "bytes",
          "name": "",
          "type": "bytes"
        }
      ],
      "name": "onERC1155Received",
      "outputs": [
        {
          "internalType": "bytes4",
          "name": "",
          "type": "bytes4"
        }
      ],
      "stateMutability": "nonpayable",
      "type": "function"
    },
    {
      "inputs": [
        {
          "internalType": "address",
          "name": "",
          "type": "address"
        },
        {
          "internalType": "address",
          "name": "",
          "type": "address"
        },
        {
          "internalType": "uint256",
          "name": "",
          "type": "uint256"
        },
        {
          "internalType": "bytes",
          "name": "",
          "type": "bytes"
        }
      ],
      "name": "onERC721Received",
      "outputs": [
        {
          "internalType": "bytes4",
          "name": "",
          "type": "bytes4"
        }
      ],
      "stateMutability": "nonpayable",
      "type": "function"
    },
    {
      "inputs": [
        {
          "internalType": "bytes32",
          "name": "role",
          "type": "bytes32"
        },
        {
          "internalType": "address",
          "name": "callerConfirmation",
          "type": "address"
        }
      ],
      "name": "renounceRole",
      "outputs": [],
      "stateMutability": "nonpayable",
      "type": "function"
    },
    {
      "inputs": [
        {
          "internalType": "bytes32",
          "name": "role",
          "type": "bytes32"
        },
        {
          "internalType": "address",
          "name": "account",
          "type": "address"
        }
      ],
      "name": "revokeRole",
      "outputs": [],
      "stateMutability": "nonpayable",
      "type": "function"
    },
    {
      "inputs": [
        {
          "internalType": "address",
          "name": "target",
          "type": "address"
        },
        {
          "internalType": "uint256",
          "name": "value",
          "type": "uint256"
        },
        {
          "internalType": "bytes",
          "name": "data",
          "type": "bytes"
        },
        {
          "internalType": "bytes32",
          "name": "predecessor",
          "type": "bytes32"
        },
        {
          "internalType": "bytes32",
          "name": "salt",
          "type": "bytes32"
        },
        {
          "internalType": "uint256",
          "name": "delay",
          "type": "uint256"
        }
      ],
      "name": "schedule",
      "outputs": [],
      "stateMutability": "nonpayable",
      "type": "function"
    },
    {
      "inputs": [
        {
          "internalType": "address[]",
          "name": "targets",
          "type": "address[]"
        },
        {
          "internalType": "uint256[]",
          "name": "values",
          "type": "uint256[]"
        },
        {
          "internalType": "bytes[]",
          "name": "payloads",
          "type": "bytes[]"
        },
        {
          "internalType": "bytes32",
          "name": "predecessor",
          "type": "bytes32"
        },
        {
          "internalType": "bytes32",
          "name": "salt",
          "type": "bytes32"
        },
        {
          "internalType": "uint256",
          "name": "delay",
          "type": "uint256"
        }
      ],
      "name": "scheduleBatch",
      "outputs": [],
      "stateMutability": "nonpayable",
      "type": "function"
    },
    {
      "inputs": [
        {
          "internalType": "bytes4",
          "name": "interfaceId",
          "type": "bytes4"
        }
      ],
      "name": "supportsInterface",
      "outputs": [
        {
          "internalType": "bool",
          "name": "",
          "type": "bool"
        }
      ],
      "stateMutability": "view",
      "type": "function"
    },
    {
      "inputs": [
        {
          "internalType": "uint256",
          "name": "newDelay",
          "type": "uint256"
        }
      ],
      "name": "updateDelay",
      "outputs": [],
      "stateMutability": "nonpayable",
      "type": "function"
    },
    {
      "stateMutability": "payable",
      "type": "receive"
    }
  ],
  "transactionHash": "0x7ad8547427e2d4a4d88f030c4256dac637c61ad92e5d7d847506a47cddf5e359",
  "args": [
    10,
    [
      "0xA9e3Fc0EE3658CCdeE90c6418E2ed13e0335C93f",
      "0xD54343A590e8fAAa1cb9ea9F1fddef4ABd365310"
    ],
    [
      "0xA9e3Fc0EE3658CCdeE90c6418E2ed13e0335C93f",
      "0xD54343A590e8fAAa1cb9ea9F1fddef4ABd365310"
    ],
    "0xD54343A590e8fAAa1cb9ea9F1fddef4ABd365310"
  ],
  "numDeployments": 1,
  "solcInputHash": "6527a25997bf946381cc702130ad96fd",
  "bytecode": "0x60806040523480156200001157600080fd5b5060405162001f6e38038062001f6e833981016040819052620000349162000340565b62000041600030620001b1565b506001600160a01b0381161562000061576200005f600082620001b1565b505b60005b83518110156200010b57620000bc7fb09aa5aeb3702cfd50b6b62bc4532604938f21248a27a1d5ca736082b6819cc1858381518110620000a857620000a8620003c7565b6020026020010151620001b160201b60201c565b50620000f77ffd643c72710c63c0180259aba6b2d05451e3591a24e58b62239378085726f783858381518110620000a857620000a8620003c7565b506200010381620003dd565b905062000064565b5060005b82518110156200016757620001537fd8aa0f3194971a2a116679f7c2090f6939c8d4e01a2a8d7e41d55e5351469e63848381518110620000a857620000a8620003c7565b506200015f81620003dd565b90506200010f565b5060028490556040805160008152602081018690527f11c24f4ead16507c69ac467fbd5e4eed5fb5c699626d2cc6d66421df253886d5910160405180910390a15050505062000405565b6000828152602081815260408083206001600160a01b038516845290915281205460ff1662000256576000838152602081815260408083206001600160a01b03861684529091529020805460ff191660011790556200020d3390565b6001600160a01b0316826001600160a01b0316847f2f8788117e7eff1d82e926ec794901d17c78024a50270940304540a733656f0d60405160405180910390a45060016200025a565b5060005b92915050565b634e487b7160e01b600052604160045260246000fd5b80516001600160a01b03811681146200028e57600080fd5b919050565b600082601f830112620002a557600080fd5b815160206001600160401b0380831115620002c457620002c462000260565b8260051b604051601f19603f83011681018181108482111715620002ec57620002ec62000260565b6040529384528581018301938381019250878511156200030b57600080fd5b83870191505b848210156200033557620003258262000276565b8352918301919083019062000311565b979650505050505050565b600080600080608085870312156200035757600080fd5b845160208601519094506001600160401b03808211156200037757600080fd5b620003858883890162000293565b945060408701519150808211156200039c57600080fd5b50620003ab8782880162000293565b925050620003bc6060860162000276565b905092959194509250565b634e487b7160e01b600052603260045260246000fd5b600060018201620003fe57634e487b7160e01b600052601160045260246000fd5b5060010190565b611b5980620004156000396000f3fe6080604052600436106101bb5760003560e01c80638065657f116100ec578063bc197c811161008a578063d547741f11610064578063d547741f1461058e578063e38335e5146105ae578063f23a6e61146105c1578063f27a0c92146105ed57600080fd5b8063bc197c8114610515578063c4d252f514610541578063d45c44351461056157600080fd5b806391d14854116100c657806391d1485414610468578063a217fddf146104ac578063b08e51c0146104c1578063b1c5f427146104f557600080fd5b80638065657f146103f45780638f2a0bb0146104145780638f61f4f51461043457600080fd5b80632ab0f5291161015957806336568abe1161013357806336568abe14610367578063584b153e1461038757806364d62353146103a75780637958004c146103c757600080fd5b80632ab0f529146103075780632f2ff15d1461032757806331d507501461034757600080fd5b8063134008d311610195578063134008d31461026057806313bc9f2014610273578063150b7a0214610293578063248a9ca3146102d757600080fd5b806301d5062a146101c757806301ffc9a7146101e957806307bd02651461021e57600080fd5b366101c257005b600080fd5b3480156101d357600080fd5b506101e76101e23660046112c0565b610602565b005b3480156101f557600080fd5b50610209610204366004611335565b6106d8565b60405190151581526020015b60405180910390f35b34801561022a57600080fd5b506102527fd8aa0f3194971a2a116679f7c2090f6939c8d4e01a2a8d7e41d55e5351469e6381565b604051908152602001610215565b6101e761026e36600461135f565b6106e9565b34801561027f57600080fd5b5061020961028e3660046113cb565b6107e1565b34801561029f57600080fd5b506102be6102ae36600461149b565b630a85bd0160e11b949350505050565b6040516001600160e01b03199091168152602001610215565b3480156102e357600080fd5b506102526102f23660046113cb565b60009081526020819052604090206001015490565b34801561031357600080fd5b506102096103223660046113cb565b610807565b34801561033357600080fd5b506101e7610342366004611503565b610810565b34801561035357600080fd5b506102096103623660046113cb565b61083b565b34801561037357600080fd5b506101e7610382366004611503565b610860565b34801561039357600080fd5b506102096103a23660046113cb565b610898565b3480156103b357600080fd5b506101e76103c23660046113cb565b6108de565b3480156103d357600080fd5b506103e76103e23660046113cb565b610951565b6040516102159190611545565b34801561040057600080fd5b5061025261040f36600461135f565b61099c565b34801561042057600080fd5b506101e761042f3660046115b2565b6109db565b34801561044057600080fd5b506102527fb09aa5aeb3702cfd50b6b62bc4532604938f21248a27a1d5ca736082b6819cc181565b34801561047457600080fd5b50610209610483366004611503565b6000918252602082815260408084206001600160a01b0393909316845291905290205460ff1690565b3480156104b857600080fd5b50610252600081565b3480156104cd57600080fd5b506102527ffd643c72710c63c0180259aba6b2d05451e3591a24e58b62239378085726f78381565b34801561050157600080fd5b50610252610510366004611664565b610b87565b34801561052157600080fd5b506102be61053036600461178d565b63bc197c8160e01b95945050505050565b34801561054d57600080fd5b506101e761055c3660046113cb565b610bcc565b34801561056d57600080fd5b5061025261057c3660046113cb565b60009081526001602052604090205490565b34801561059a57600080fd5b506101e76105a9366004611503565b610c77565b6101e76105bc366004611664565b610c9c565b3480156105cd57600080fd5b506102be6105dc366004611837565b63f23a6e6160e01b95945050505050565b3480156105f957600080fd5b50600254610252565b7fb09aa5aeb3702cfd50b6b62bc4532604938f21248a27a1d5ca736082b6819cc161062c81610e82565b600061063c89898989898961099c565b90506106488184610e8f565b6000817f4cf4410cc57040e44862ef0f45f3dd5a5e02db8eb8add648d4b0e236f1d07dca8b8b8b8b8b8a604051610684969594939291906118c5565b60405180910390a383156106cd57807f20fda5fd27a1ea7bf5b9567f143ac5470bb059374a27e8f67cb44f946f6d0387856040516106c491815260200190565b60405180910390a25b505050505050505050565b60006106e382610f23565b92915050565b600080527fdae2aa361dfd1ca020a396615627d436107c35eff9fe7738a3512819782d70696020527f5ba6852781629bcdcd4bdaa6de76d786f1c64b16acdac474e55bebc0ea157951547fd8aa0f3194971a2a116679f7c2090f6939c8d4e01a2a8d7e41d55e5351469e639060ff16610766576107668133610f48565b600061077688888888888861099c565b90506107828185610f9f565b61078e88888888610fed565b6000817fc2617efa69bab66782fa219543714338489c4e9e178271560a91b82c3f612b588a8a8a8a6040516107c69493929190611903565b60405180910390a36107d781611065565b5050505050505050565b600060025b6107ef83610951565b60038111156108005761080061152f565b1492915050565b600060036107e6565b60008281526020819052604090206001015461082b81610e82565b6108358383611091565b50505050565b60008061084783610951565b60038111156108585761085861152f565b141592915050565b6001600160a01b03811633146108895760405163334bd91960e11b815260040160405180910390fd5b610893828261113b565b505050565b6000806108a483610951565b905060018160038111156108ba576108ba61152f565b14806108d7575060028160038111156108d5576108d561152f565b145b9392505050565b3330811461090f5760405163e2850c5960e01b81526001600160a01b03821660048201526024015b60405180910390fd5b60025460408051918252602082018490527f11c24f4ead16507c69ac467fbd5e4eed5fb5c699626d2cc6d66421df253886d5910160405180910390a150600255565b600081815260016020526040812054806000036109715750600092915050565b600181036109825750600392915050565b428111156109935750600192915050565b50600292915050565b60008686868686866040516020016109b9969594939291906118c5565b6040516020818303038152906040528051906020012090509695505050505050565b7fb09aa5aeb3702cfd50b6b62bc4532604938f21248a27a1d5ca736082b6819cc1610a0581610e82565b8887141580610a145750888514155b15610a5c576040517fffb03211000000000000000000000000000000000000000000000000000000008152600481018a90526024810186905260448101889052606401610906565b6000610a6e8b8b8b8b8b8b8b8b610b87565b9050610a7a8184610e8f565b60005b8a811015610b385780827f4cf4410cc57040e44862ef0f45f3dd5a5e02db8eb8add648d4b0e236f1d07dca8e8e85818110610aba57610aba611936565b9050602002016020810190610acf919061194c565b8d8d86818110610ae157610ae1611936565b905060200201358c8c87818110610afa57610afa611936565b9050602002810190610b0c9190611967565b8c8b604051610b20969594939291906118c5565b60405180910390a3610b31816119c4565b9050610a7d565b508315610b7a57807f20fda5fd27a1ea7bf5b9567f143ac5470bb059374a27e8f67cb44f946f6d038785604051610b7191815260200190565b60405180910390a25b5050505050505050505050565b60008888888888888888604051602001610ba8989796959493929190611a6f565b60405160208183030381529060405280519060200120905098975050505050505050565b7ffd643c72710c63c0180259aba6b2d05451e3591a24e58b62239378085726f783610bf681610e82565b610bff82610898565b610c3b5781610c0e60026111be565b610c1860016111be565b604051635ead8eb560e01b81526004810193909352176024820152604401610906565b6000828152600160205260408082208290555183917fbaa1eb22f2a492ba1a5fea61b8df4d27c6c8b5f3971e63bb58fa14ff72eedb7091a25050565b600082815260208190526040902060010154610c9281610e82565b610835838361113b565b600080527fdae2aa361dfd1ca020a396615627d436107c35eff9fe7738a3512819782d70696020527f5ba6852781629bcdcd4bdaa6de76d786f1c64b16acdac474e55bebc0ea157951547fd8aa0f3194971a2a116679f7c2090f6939c8d4e01a2a8d7e41d55e5351469e639060ff16610d1957610d198133610f48565b8786141580610d285750878414155b15610d70576040517fffb03211000000000000000000000000000000000000000000000000000000008152600481018990526024810185905260448101879052606401610906565b6000610d828a8a8a8a8a8a8a8a610b87565b9050610d8e8185610f9f565b60005b89811015610e6c5760008b8b83818110610dad57610dad611936565b9050602002016020810190610dc2919061194c565b905060008a8a84818110610dd857610dd8611936565b9050602002013590503660008a8a86818110610df657610df6611936565b9050602002810190610e089190611967565b91509150610e1884848484610fed565b84867fc2617efa69bab66782fa219543714338489c4e9e178271560a91b82c3f612b5886868686604051610e4f9493929190611903565b60405180910390a35050505080610e65906119c4565b9050610d91565b50610e7681611065565b50505050505050505050565b610e8c8133610f48565b50565b610e988261083b565b15610eca5781610ea860006111be565b604051635ead8eb560e01b815260048101929092526024820152604401610906565b6000610ed560025490565b905080821015610f0257604051635433660960e01b81526004810183905260248101829052604401610906565b610f0c8242611b29565b600093845260016020526040909320929092555050565b60006001600160e01b03198216630271189760e51b14806106e357506106e3826111e1565b6000828152602081815260408083206001600160a01b038516845290915290205460ff16610f9b5760405163e2517d3f60e01b81526001600160a01b038216600482015260248101839052604401610906565b5050565b610fa8826107e1565b610fb75781610ea860026111be565b8015801590610fcc5750610fca81610807565b155b15610f9b5760405163121534c360e31b815260048101829052602401610906565b600080856001600160a01b031685858560405161100b929190611b3c565b60006040518083038185875af1925050503d8060008114611048576040519150601f19603f3d011682016040523d82523d6000602084013e61104d565b606091505b509150915061105c8282611216565b50505050505050565b61106e816107e1565b61107d5780610ea860026111be565b600090815260016020819052604090912055565b6000828152602081815260408083206001600160a01b038516845290915281205460ff16611133576000838152602081815260408083206001600160a01b03861684529091529020805460ff191660011790556110eb3390565b6001600160a01b0316826001600160a01b0316847f2f8788117e7eff1d82e926ec794901d17c78024a50270940304540a733656f0d60405160405180910390a45060016106e3565b5060006106e3565b6000828152602081815260408083206001600160a01b038516845290915281205460ff1615611133576000838152602081815260408083206001600160a01b0386168085529252808320805460ff1916905551339286917ff6391f5c32d9c69d2a47ea670b442974b53935d1edc7fd64eb21e047a839171b9190a45060016106e3565b60008160038111156111d2576111d261152f565b600160ff919091161b92915050565b60006001600160e01b03198216637965db0b60e01b14806106e357506301ffc9a760e01b6001600160e01b03198316146106e3565b60608261122b5761122682611232565b6106e3565b50806106e3565b8051156112425780518082602001fd5b604051630a12f52160e11b815260040160405180910390fd5b80356001600160a01b038116811461127257600080fd5b919050565b60008083601f84011261128957600080fd5b50813567ffffffffffffffff8111156112a157600080fd5b6020830191508360208285010111156112b957600080fd5b9250929050565b600080600080600080600060c0888a0312156112db57600080fd5b6112e48861125b565b965060208801359550604088013567ffffffffffffffff81111561130757600080fd5b6113138a828b01611277565b989b979a50986060810135976080820135975060a09091013595509350505050565b60006020828403121561134757600080fd5b81356001600160e01b0319811681146108d757600080fd5b60008060008060008060a0878903121561137857600080fd5b6113818761125b565b955060208701359450604087013567ffffffffffffffff8111156113a457600080fd5b6113b089828a01611277565b979a9699509760608101359660809091013595509350505050565b6000602082840312156113dd57600080fd5b5035919050565b634e487b7160e01b600052604160045260246000fd5b604051601f8201601f1916810167ffffffffffffffff81118282101715611423576114236113e4565b604052919050565b600082601f83011261143c57600080fd5b813567ffffffffffffffff811115611456576114566113e4565b611469601f8201601f19166020016113fa565b81815284602083860101111561147e57600080fd5b816020850160208301376000918101602001919091529392505050565b600080600080608085870312156114b157600080fd5b6114ba8561125b565b93506114c86020860161125b565b925060408501359150606085013567ffffffffffffffff8111156114eb57600080fd5b6114f78782880161142b565b91505092959194509250565b6000806040838503121561151657600080fd5b823591506115266020840161125b565b90509250929050565b634e487b7160e01b600052602160045260246000fd5b602081016004831061156757634e487b7160e01b600052602160045260246000fd5b91905290565b60008083601f84011261157f57600080fd5b50813567ffffffffffffffff81111561159757600080fd5b6020830191508360208260051b85010111156112b957600080fd5b600080600080600080600080600060c08a8c0312156115d057600080fd5b893567ffffffffffffffff808211156115e857600080fd5b6115f48d838e0161156d565b909b50995060208c013591508082111561160d57600080fd5b6116198d838e0161156d565b909950975060408c013591508082111561163257600080fd5b5061163f8c828d0161156d565b9a9d999c50979a969997986060880135976080810135975060a0013595509350505050565b60008060008060008060008060a0898b03121561168057600080fd5b883567ffffffffffffffff8082111561169857600080fd5b6116a48c838d0161156d565b909a50985060208b01359150808211156116bd57600080fd5b6116c98c838d0161156d565b909850965060408b01359150808211156116e257600080fd5b506116ef8b828c0161156d565b999c989b509699959896976060870135966080013595509350505050565b600082601f83011261171e57600080fd5b8135602067ffffffffffffffff82111561173a5761173a6113e4565b8160051b6117498282016113fa565b928352848101820192828101908785111561176357600080fd5b83870192505b8483101561178257823582529183019190830190611769565b979650505050505050565b600080600080600060a086880312156117a557600080fd5b6117ae8661125b565b94506117bc6020870161125b565b9350604086013567ffffffffffffffff808211156117d957600080fd5b6117e589838a0161170d565b945060608801359150808211156117fb57600080fd5b61180789838a0161170d565b9350608088013591508082111561181d57600080fd5b5061182a8882890161142b565b9150509295509295909350565b600080600080600060a0868803121561184f57600080fd5b6118588661125b565b94506118666020870161125b565b93506040860135925060608601359150608086013567ffffffffffffffff81111561189057600080fd5b61182a8882890161142b565b81835281816020850137506000828201602090810191909152601f909101601f19169091010190565b6001600160a01b038716815285602082015260a0604082015260006118ee60a08301868861189c565b60608301949094525060800152949350505050565b6001600160a01b038516815283602082015260606040820152600061192c60608301848661189c565b9695505050505050565b634e487b7160e01b600052603260045260246000fd5b60006020828403121561195e57600080fd5b6108d78261125b565b6000808335601e1984360301811261197e57600080fd5b83018035915067ffffffffffffffff82111561199957600080fd5b6020019150368190038213156112b957600080fd5b634e487b7160e01b600052601160045260246000fd5b6000600182016119d6576119d66119ae565b5060010190565b81835260006020808501808196508560051b810191508460005b87811015611a625782840389528135601e19883603018112611a1857600080fd5b8701858101903567ffffffffffffffff811115611a3457600080fd5b803603821315611a4357600080fd5b611a4e86828461189c565b9a87019a95505050908401906001016119f7565b5091979650505050505050565b60a0808252810188905260008960c08301825b8b811015611ab0576001600160a01b03611a9b8461125b565b16825260209283019290910190600101611a82565b5083810360208501528881527f07ffffffffffffffffffffffffffffffffffffffffffffffffffffffffffffff891115611ae957600080fd5b8860051b9150818a60208301370182810360209081016040850152611b1190820187896119dd565b60608401959095525050608001529695505050505050565b808201808211156106e3576106e36119ae565b818382376000910190815291905056fea164736f6c6343000814000a",
  "devdoc": {
    "details": "Contract module which acts as a timelocked controller. When set as the owner of an `Ownable` smart contract, it enforces a timelock on all `onlyOwner` maintenance operations. This gives time for users of the controlled contract to exit before a potentially dangerous maintenance operation is applied. By default, this contract is self administered, meaning administration tasks have to go through the timelock process. The proposer (resp executor) role is in charge of proposing (resp executing) operations. A common use case is to position this {TimelockController} as the owner of a smart contract, with a multisig or a DAO as the sole proposer.",
    "errors": {
      "AccessControlBadConfirmation()": [
        {
          "details": "The caller of a function is not the expected one. NOTE: Don't confuse with {AccessControlUnauthorizedAccount}."
        }
      ],
      "AccessControlUnauthorizedAccount(address,bytes32)": [
        {
          "details": "The `account` is missing a role."
        }
      ],
      "FailedInnerCall()": [
        {
          "details": "A call to an address target failed. The target may have reverted."
        }
      ],
      "TimelockInsufficientDelay(uint256,uint256)": [
        {
          "details": "The schedule operation doesn't meet the minimum delay."
        }
      ],
      "TimelockInvalidOperationLength(uint256,uint256,uint256)": [
        {
          "details": "Mismatch between the parameters length for an operation call."
        }
      ],
      "TimelockUnauthorizedCaller(address)": [
        {
          "details": "The caller account is not authorized."
        }
      ],
      "TimelockUnexecutedPredecessor(bytes32)": [
        {
          "details": "The predecessor to an operation not yet done."
        }
      ],
      "TimelockUnexpectedOperationState(bytes32,bytes32)": [
        {
          "details": "The current state of an operation is not as required. The `expectedStates` is a bitmap with the bits enabled for each OperationState enum position counting from right to left. See {_encodeStateBitmap}."
        }
      ]
    },
    "events": {
      "CallExecuted(bytes32,uint256,address,uint256,bytes)": {
        "details": "Emitted when a call is performed as part of operation `id`."
      },
      "CallSalt(bytes32,bytes32)": {
        "details": "Emitted when new proposal is scheduled with non-zero salt."
      },
      "CallScheduled(bytes32,uint256,address,uint256,bytes,bytes32,uint256)": {
        "details": "Emitted when a call is scheduled as part of operation `id`."
      },
      "Cancelled(bytes32)": {
        "details": "Emitted when operation `id` is cancelled."
      },
      "MinDelayChange(uint256,uint256)": {
        "details": "Emitted when the minimum delay for future operations is modified."
      },
      "RoleAdminChanged(bytes32,bytes32,bytes32)": {
        "details": "Emitted when `newAdminRole` is set as ``role``'s admin role, replacing `previousAdminRole` `DEFAULT_ADMIN_ROLE` is the starting admin for all roles, despite {RoleAdminChanged} not being emitted signaling this."
      },
      "RoleGranted(bytes32,address,address)": {
        "details": "Emitted when `account` is granted `role`. `sender` is the account that originated the contract call, an admin role bearer except when using {AccessControl-_setupRole}."
      },
      "RoleRevoked(bytes32,address,address)": {
        "details": "Emitted when `account` is revoked `role`. `sender` is the account that originated the contract call:   - if using `revokeRole`, it is the admin role bearer   - if using `renounceRole`, it is the role bearer (i.e. `account`)"
      }
    },
    "kind": "dev",
    "methods": {
      "cancel(bytes32)": {
        "details": "Cancel an operation. Requirements: - the caller must have the 'canceller' role."
      },
      "constructor": {
        "details": "Initializes the contract with the following parameters: - `minDelay`: initial minimum delay in seconds for operations - `proposers`: accounts to be granted proposer and canceller roles - `executors`: accounts to be granted executor role - `admin`: optional account to be granted admin role; disable with zero address IMPORTANT: The optional admin can aid with initial configuration of roles after deployment without being subject to delay, but this role should be subsequently renounced in favor of administration through timelocked proposals. Previous versions of this contract would assign this admin to the deployer automatically and should be renounced as well."
      },
      "execute(address,uint256,bytes,bytes32,bytes32)": {
        "details": "Execute an (ready) operation containing a single transaction. Emits a {CallExecuted} event. Requirements: - the caller must have the 'executor' role."
      },
      "executeBatch(address[],uint256[],bytes[],bytes32,bytes32)": {
        "details": "Execute an (ready) operation containing a batch of transactions. Emits one {CallExecuted} event per transaction in the batch. Requirements: - the caller must have the 'executor' role."
      },
      "getMinDelay()": {
        "details": "Returns the minimum delay in seconds for an operation to become valid. This value can be changed by executing an operation that calls `updateDelay`."
      },
      "getOperationState(bytes32)": {
        "details": "Returns operation state."
      },
      "getRoleAdmin(bytes32)": {
        "details": "Returns the admin role that controls `role`. See {grantRole} and {revokeRole}. To change a role's admin, use {_setRoleAdmin}."
      },
      "getTimestamp(bytes32)": {
        "details": "Returns the timestamp at which an operation becomes ready (0 for unset operations, 1 for done operations)."
      },
      "grantRole(bytes32,address)": {
        "details": "Grants `role` to `account`. If `account` had not been already granted `role`, emits a {RoleGranted} event. Requirements: - the caller must have ``role``'s admin role. May emit a {RoleGranted} event."
      },
      "hasRole(bytes32,address)": {
        "details": "Returns `true` if `account` has been granted `role`."
      },
      "hashOperation(address,uint256,bytes,bytes32,bytes32)": {
        "details": "Returns the identifier of an operation containing a single transaction."
      },
      "hashOperationBatch(address[],uint256[],bytes[],bytes32,bytes32)": {
        "details": "Returns the identifier of an operation containing a batch of transactions."
      },
      "isOperation(bytes32)": {
        "details": "Returns whether an id corresponds to a registered operation. This includes both Waiting, Ready, and Done operations."
      },
      "isOperationDone(bytes32)": {
        "details": "Returns whether an operation is done or not."
      },
      "isOperationPending(bytes32)": {
        "details": "Returns whether an operation is pending or not. Note that a \"pending\" operation may also be \"ready\"."
      },
      "isOperationReady(bytes32)": {
        "details": "Returns whether an operation is ready for execution. Note that a \"ready\" operation is also \"pending\"."
      },
      "onERC721Received(address,address,uint256,bytes)": {
        "details": "See {IERC721Receiver-onERC721Received}. Always returns `IERC721Receiver.onERC721Received.selector`."
      },
      "renounceRole(bytes32,address)": {
        "details": "Revokes `role` from the calling account. Roles are often managed via {grantRole} and {revokeRole}: this function's purpose is to provide a mechanism for accounts to lose their privileges if they are compromised (such as when a trusted device is misplaced). If the calling account had been revoked `role`, emits a {RoleRevoked} event. Requirements: - the caller must be `callerConfirmation`. May emit a {RoleRevoked} event."
      },
      "revokeRole(bytes32,address)": {
        "details": "Revokes `role` from `account`. If `account` had been granted `role`, emits a {RoleRevoked} event. Requirements: - the caller must have ``role``'s admin role. May emit a {RoleRevoked} event."
      },
      "schedule(address,uint256,bytes,bytes32,bytes32,uint256)": {
        "details": "Schedule an operation containing a single transaction. Emits {CallSalt} if salt is nonzero, and {CallScheduled}. Requirements: - the caller must have the 'proposer' role."
      },
      "scheduleBatch(address[],uint256[],bytes[],bytes32,bytes32,uint256)": {
        "details": "Schedule an operation containing a batch of transactions. Emits {CallSalt} if salt is nonzero, and one {CallScheduled} event per transaction in the batch. Requirements: - the caller must have the 'proposer' role."
      },
      "supportsInterface(bytes4)": {
        "details": "See {IERC165-supportsInterface}."
      },
      "updateDelay(uint256)": {
        "details": "Changes the minimum timelock duration for future operations. Emits a {MinDelayChange} event. Requirements: - the caller must be the timelock itself. This can only be achieved by scheduling and later executing an operation where the timelock is the target and the data is the ABI-encoded call to this function."
      }
    },
    "version": 1
  },
  "userdoc": {
    "kind": "user",
    "methods": {},
    "version": 1
  },
  "storageLayout": {
    "storage": [
      {
        "astId": 26,
        "contract": "contracts/TimelockController.sol:TimelockController",
        "label": "_roles",
        "offset": 0,
        "slot": "0",
        "type": "t_mapping(t_bytes32,t_struct(RoleData)21_storage)"
      },
      {
        "astId": 14641,
        "contract": "contracts/TimelockController.sol:TimelockController",
        "label": "_timestamps",
        "offset": 0,
        "slot": "1",
        "type": "t_mapping(t_bytes32,t_uint256)"
      },
      {
        "astId": 14643,
        "contract": "contracts/TimelockController.sol:TimelockController",
        "label": "_minDelay",
        "offset": 0,
        "slot": "2",
        "type": "t_uint256"
      }
    ],
    "types": {
      "t_address": {
        "encoding": "inplace",
        "label": "address",
        "numberOfBytes": "20"
      },
      "t_bool": {
        "encoding": "inplace",
        "label": "bool",
        "numberOfBytes": "1"
      },
      "t_bytes32": {
        "encoding": "inplace",
        "label": "bytes32",
        "numberOfBytes": "32"
      },
      "t_mapping(t_address,t_bool)": {
        "encoding": "mapping",
        "key": "t_address",
        "label": "mapping(address => bool)",
        "numberOfBytes": "32",
        "value": "t_bool"
      },
      "t_mapping(t_bytes32,t_struct(RoleData)21_storage)": {
        "encoding": "mapping",
        "key": "t_bytes32",
        "label": "mapping(bytes32 => struct AccessControl.RoleData)",
        "numberOfBytes": "32",
        "value": "t_struct(RoleData)21_storage"
      },
      "t_mapping(t_bytes32,t_uint256)": {
        "encoding": "mapping",
        "key": "t_bytes32",
        "label": "mapping(bytes32 => uint256)",
        "numberOfBytes": "32",
        "value": "t_uint256"
      },
      "t_struct(RoleData)21_storage": {
        "encoding": "inplace",
        "label": "struct AccessControl.RoleData",
        "members": [
          {
            "astId": 18,
            "contract": "contracts/TimelockController.sol:TimelockController",
            "label": "hasRole",
            "offset": 0,
            "slot": "0",
            "type": "t_mapping(t_address,t_bool)"
          },
          {
            "astId": 20,
            "contract": "contracts/TimelockController.sol:TimelockController",
            "label": "adminRole",
            "offset": 0,
            "slot": "1",
            "type": "t_bytes32"
          }
        ],
        "numberOfBytes": "64"
      },
      "t_uint256": {
        "encoding": "inplace",
        "label": "uint256",
        "numberOfBytes": "32"
      }
    }
  }
}